:100000000C9441000C945E000C945E000C945E0015
:100010000C945E000C945E000C945E000C945E00E8
:100020000C945E000C945E000C945E000C945801DD
:100030000C945E000C945E000C945E000C945E00C8
:100040000C945E000C945E000C945E000C945E00B8
:100050000C945E007B0288029502A202AF02170395
:10006000BC02C902D60231032403E302F002FD02FE
:100070000A03480352035C03660370037A03840394
:100080008E0311241FBECFE5D8E0DEBFCDBF10E048
:10009000A0E6B0E0EAE5F8E002C005900D92A036D7
:1000A000B107D9F720E0A0E6B0E001C01D92A83664
:1000B000B207E1F70E9460000C942B040C9400003E
:1000C0000E94FE000E9441012FEF81E19AE721503A
:1000D00080409040E1F700C000000E947000FFCF18
:1000E0000E944C010E9414012FE78DE794E32150F8
:1000F00080409040E1F700C000000E941F012FEFF8
:1001000089E698E1215080409040E1F700C000006E
:100110000E9454010E9409012FEF85EC9CE52150BB
:1001200080409040E1F700C000000E941F010E9443
:100130004C012FEF89E698E1215080409040E1F793
:1001400000C000000E9450010E9414012FE789ECBA
:1001500091E5215080409040E1F700C000000E94EE
:100160001F010E944C012FEF89E698E12150804049
:100170009040E1F700C000000E9454010E94090174
:100180002FEF8BE792E9215080409040E1F700C0CB
:1001900000000E944C010E941F012FEF89E698E1A8
:1001A000215080409040E1F700C000000E945001C3
:1001B0000E9409012FEF89EB9BED21508040904078
:1001C000E1F700C000000E944C010E941F012FEFC8
:1001D00089E698E1215080409040E1F700C000009E
:1001E0000E9409012FEF84E39CE021508040904061
:1001F000E1F700C000000E941F01089541E063E0A4
:1002000080E00E94970141E064E080E00E94970155
:10021000089540E063E080E00E94040241E064E071
:1002200080E00E940402089541E063E080E00E94C3
:10023000040240E064E080E00E940402089540E08F
:1002400063E080E00E94040240E064E080E00E94FD
:10025000040208958B3548F42BE08202C00111247A
:100260008A5B9A4F0E941304089588234CF4819569
:1002700026EF8202C00111248A5B9A4F0E94130468
:10028000089520E042E062E08AE00E94FE038FE1F0
:100290009EE40E941604089580E00E942A010895B9
:1002A0008AE10E942A01089583EE0E942A0108959E
:1002B0001F920F920FB60F9211242F933F934F93DB
:1002C0005F936F937F938F939F93AF932091600081
:1002D0003091610040916200509163006091640030
:1002E000709165008091660090916700A1E00E9486
:1002F0001F0420936000309361004093620050938C
:10030000630060936400709365008093660090932F
:100310006700AF919F918F917F916F915F914F9106
:100320003F912F910F900FBE0F901F901895813025
:1003300001F130F08230B1F1833009F44CC00895FE
:10034000413059F42AB381E090E002C0880F991F30
:100350006A95E2F7822B8ABB08952AB381E090E088
:1003600002C0880F991F6A95E2F7809582238ABBA5
:100370000895413059F427B381E090E002C0880F1E
:10038000991F6A95E2F7822B87BB089527B381E016
:1003900090E002C0880F991F6A95E2F7809582234A
:1003A00087BB0895413059F424B381E090E002C046
:1003B000880F991F6A95E2F7822B84BB089524B3B6
:1003C00081E090E002C0880F991F6A95E2F780955E
:1003D000822384BB0895413059F421B381E090E039
:1003E00002C0880F991F6A95E2F7822B81BB08959E
:1003F00021B381E090E002C0880F991F6A95E2F76F
:100400008095822381BB0895813001F130F08230E4
:10041000B1F1833009F44CC00895413059F42BB345
:1004200081E090E002C0880F991F6A95E2F7822B65
:100430008BBB08952BB381E090E002C0880F991F19
:100440006A95E2F7809582238BBB0895413059F479
:1004500028B381E090E002C0880F991F6A95E2F707
:10046000822B88BB089528B381E090E002C0880FFA
:10047000991F6A95E2F78095822388BB08954130E1
:1004800059F425B381E090E002C0880F991F6A9566
:10049000E2F7822B85BB089525B381E090E002C08E
:1004A000880F991F6A95E2F78095822385BB08958E
:1004B000413059F422B381E090E002C0880F991FC7
:1004C0006A95E2F7822B82BB089522B381E090E027
:1004D00002C0880F991F6A95E2F78095822382BB3C
:1004E000089590E08F30910508F0C7C0FC01E65DEB
:1004F000FF4F0C9419048FB58E7F8FBD8FB58D7F04
:100500008FBD8EB5877F8EBD8EB58F7E8EBD0895D3
:100510008FB581608FBD8FB58D7F8FBD8EB5877F85
:100520008EBD8EB58F7E8EBD08958FB58E7F8FBDAB
:100530008FB582608FBD8EB5877F8EBD8EB58F7E65
:100540008EBD08958FB581608FBD8FB582608FBDE0
:100550008EB5877F8EBD8EB58F7E8EBD08958FB58B
:100560008E7F8FBD8FB58D7F8FBD8EB588608EBD20
:100570008EB58F7E8EBD08958FB581608FBD8FB58E
:100580008D7F8FBD8EB588608EBD8EB58F7E8EBD02
:1005900008958FB58E7F8FBD8FB582608FBD8EB56C
:1005A00088608EBD8EB58F7E8EBD08958FB58160BB
:1005B0008FBD8FB582608FBD8EB588608EBD8EB5C4
:1005C0008F7E8EBD08958FB58E7F8FBD8FB58D7F49
:1005D0008FBD8EB5877F8EBD8EB580618EBD08952F
:1005E0008FB581608FBD8FB58D7F8FBD8EB5877FB5
:1005F0008EBD8EB580618EBD08958FB58E7F8FBD07
:100600008FB582608FBD8EB5877F8EBD8EB58061C0
:100610008EBD08958FB581608FBD8FB582608FBD0F
:100620008EB5877F8EBD8EB580618EBD08958FB5E6
:100630008E7F8FBD8FB58D7F8FBD8EB588608EBD4F
:100640008EB580618EBD08958FB58E7F8FBD8FB5BD
:1006500082608FBD8EB588608EBD8EB580618EBD87
:1006600008958FB581608FBD8FB582608FBD8EB5C7
:1006700088608EBD8EB580618EBD089590E0883013
:10068000910508F054C0FC01E75CFF4F0C9419047D
:100690008EB58E7F8EBD8EB58D7F8EBD8EB58B7FD8
:1006A0008EBD08958EB581608EBD8EB58D7F8EBD59
:1006B0008EB58B7F8EBD08958EB58E7F8EBD8EB527
:1006C00082608EBD8EB58B7F8EBD08958EB58160A4
:1006D0008EBD8EB582608EBD8EB58B7F8EBD08952A
:1006E0008EB58E7F8EBD8EB58D7F8EBD8EB58460AE
:1006F0008EBD08958EB581608EBD8EB58D7F8EBD09
:100700008EB584608EBD08958EB581608EBD8EB528
:1007100082608EBD8EB58B7F8EBD08958EB5816053
:100720008EBD8EB582608EBD8EB584608EBD0895FF
:10073000813069F028F08230B1F0833001F1089502
:100740008FB58F7B8FBD8FB58F778FBD089541E0BB
:1007500065E083E00E9497018FB580648FBD8FB5FF
:100760008F778FBD089541E065E083E00E94970197
:100770008FB58F7B8FBD8FB580688FBD089541E0A9
:1007800065E083E00E9497018FB580648FBD8FB5CF
:1007900080688FBD0895813069F028F08230B1F013
:1007A000833001F108958FB58F7E8FBD8FB58F7D1A
:1007B0008FBD089541E064E083E00E9497018FB50A
:1007C00080618FBD8FB58F7D8FBD089541E064E05E
:1007D00083E00E9497018FB58F7E8FBD8FB58062B9
:1007E0008FBD089541E064E083E00E9497018FB5DA
:1007F00080618FBD8FB580628FBD08951F93CF93A9
:10080000DF93C62F142FD22F0E947102812F0E94D6
:1008100098038D2F0E94CB038C2F0E943E03DF9103
:10082000CF911F9108959BBD8ABD089597BD86BD48
:100830000895EE0FFF1F0590F491E02D0994002418
:10084000A7FD00942A0F301D401D501D601D701D16
:0A085000801D901D0895F894FFCF5D
:00000001FF
